{
  "contractName": "ItemManager",
  "abi": [
    {
      "anonymous": false,
      "inputs": [
        {
          "indexed": true,
          "internalType": "address",
          "name": "previousOwner",
          "type": "address"
        },
        {
          "indexed": true,
          "internalType": "address",
          "name": "newOwner",
          "type": "address"
        }
      ],
      "name": "OwnershipTransferred",
      "type": "event"
    },
    {
      "anonymous": false,
      "inputs": [
        {
          "indexed": false,
          "internalType": "uint256",
          "name": "_itemIndex",
          "type": "uint256"
        },
        {
          "indexed": false,
          "internalType": "uint256",
          "name": "_itemStep",
          "type": "uint256"
        },
        {
          "indexed": false,
          "internalType": "address",
          "name": "_itemAddress",
          "type": "address"
        }
      ],
      "name": "SupplyChainStep",
      "type": "event"
    },
    {
      "inputs": [
        {
          "internalType": "uint256",
          "name": "",
          "type": "uint256"
        }
      ],
      "name": "items",
      "outputs": [
        {
          "internalType": "contract Item",
          "name": "_item",
          "type": "address"
        },
        {
          "internalType": "string",
          "name": "_identifier",
          "type": "string"
        },
        {
          "internalType": "uint256",
          "name": "_itemPrice",
          "type": "uint256"
        },
        {
          "internalType": "enum ItemManager.SupplyChainState",
          "name": "_state",
          "type": "uint8"
        }
      ],
      "stateMutability": "view",
      "type": "function"
    },
    {
      "inputs": [],
      "name": "owner",
      "outputs": [
        {
          "internalType": "address",
          "name": "",
          "type": "address"
        }
      ],
      "stateMutability": "view",
      "type": "function"
    },
    {
      "inputs": [],
      "name": "renounceOwnership",
      "outputs": [],
      "stateMutability": "nonpayable",
      "type": "function"
    },
    {
      "inputs": [
        {
          "internalType": "address",
          "name": "newOwner",
          "type": "address"
        }
      ],
      "name": "transferOwnership",
      "outputs": [],
      "stateMutability": "nonpayable",
      "type": "function"
    },
    {
      "inputs": [
        {
          "internalType": "string",
          "name": "_identifier",
          "type": "string"
        },
        {
          "internalType": "uint256",
          "name": "_itemPrice",
          "type": "uint256"
        }
      ],
      "name": "createItem",
      "outputs": [],
      "stateMutability": "nonpayable",
      "type": "function"
    },
    {
      "inputs": [
        {
          "internalType": "uint256",
          "name": "_itemIndex",
          "type": "uint256"
        }
      ],
      "name": "triggerPayment",
      "outputs": [],
      "stateMutability": "payable",
      "type": "function"
    },
    {
      "inputs": [
        {
          "internalType": "uint256",
          "name": "_itemIndex",
          "type": "uint256"
        }
      ],
      "name": "triggerDelivery",
      "outputs": [],
      "stateMutability": "nonpayable",
      "type": "function"
    }
  ],
  "bytecode": "0x608060405234801561001057600080fd5b5061002d61002261003260201b60201c565b61003a60201b60201c565b6100fe565b600033905090565b60008060009054906101000a900473ffffffffffffffffffffffffffffffffffffffff169050816000806101000a81548173ffffffffffffffffffffffffffffffffffffffff021916908373ffffffffffffffffffffffffffffffffffffffff1602179055508173ffffffffffffffffffffffffffffffffffffffff168173ffffffffffffffffffffffffffffffffffffffff167f8be0079c531659141344cd1fd0a4f28419497f9722a3daafe3b4186f6b6457e060405160405180910390a35050565b611c898061010d6000396000f3fe6080604052600436106200007a5760003560e01c80638da5cb5b11620000555780638da5cb5b14620000e7578063bfb231d21462000117578063cd31831e146200015e578063f2fde38b146200018c576200007a565b8063715018a6146200007f578063800fb83f14620000995780638c55174214620000b9575b600080fd5b3480156200008c57600080fd5b5062000097620001ba565b005b620000b76004803603810190620000b1919062000ea5565b6200024b565b005b348015620000c657600080fd5b50620000e56004803603810190620000df919062000e4b565b620004b8565b005b348015620000f457600080fd5b50620000ff62000745565b6040516200010e919062001003565b60405180910390f35b3480156200012457600080fd5b506200014360048036038101906200013d919062000ea5565b6200076e565b6040516200015594939291906200105d565b60405180910390f35b3480156200016b57600080fd5b506200018a600480360381019062000184919062000ea5565b6200085b565b005b3480156200019957600080fd5b50620001b86004803603810190620001b2919062000e1f565b62000af1565b005b620001c462000bf5565b73ffffffffffffffffffffffffffffffffffffffff16620001e462000745565b73ffffffffffffffffffffffffffffffffffffffff16146200023d576040517f08c379a00000000000000000000000000000000000000000000000000000000081526004016200023490620010f5565b60405180910390fd5b62000249600062000bfd565b565b34600160008381526020019081526020016000206002015414620002a6576040517f08c379a00000000000000000000000000000000000000000000000000000000081526004016200029d9062001117565b60405180910390fd5b60006002811115620002e1577f4e487b7100000000000000000000000000000000000000000000000000000000600052602160045260246000fd5b6001600083815260200190815260200160002060030160009054906101000a900460ff1660028111156200033e577f4e487b7100000000000000000000000000000000000000000000000000000000600052602160045260246000fd5b1462000381576040517f08c379a00000000000000000000000000000000000000000000000000000000081526004016200037890620010d3565b60405180910390fd5b600180600083815260200190815260200160002060030160006101000a81548160ff02191690836002811115620003e1577f4e487b7100000000000000000000000000000000000000000000000000000000600052602160045260246000fd5b02179055507fa4035636e99f06b7651a604c1019fa4e8779fe68ef27eeb74dff2de348f6199b816001600084815260200190815260200160002060030160009054906101000a900460ff16600281111562000465577f4e487b7100000000000000000000000000000000000000000000000000000000600052602160045260246000fd5b6001600085815260200190815260200160002060000160009054906101000a900473ffffffffffffffffffffffffffffffffffffffff16604051620004ad9392919062001139565b60405180910390a150565b620004c262000bf5565b73ffffffffffffffffffffffffffffffffffffffff16620004e262000745565b73ffffffffffffffffffffffffffffffffffffffff16146200053b576040517f08c379a00000000000000000000000000000000000000000000000000000000081526004016200053290620010f5565b60405180910390fd5b60003082600254604051620005509062000cc1565b6200055e9392919062001020565b604051809103906000f0801580156200057b573d6000803e3d6000fd5b5090508060016000600254815260200190815260200160002060000160006101000a81548173ffffffffffffffffffffffffffffffffffffffff021916908373ffffffffffffffffffffffffffffffffffffffff1602179055508260016000600254815260200190815260200160002060010190805190602001906200060392919062000ccf565b508160016000600254815260200190815260200160002060020181905550600060016000600254815260200190815260200160002060030160006101000a81548160ff0219169083600281111562000684577f4e487b7100000000000000000000000000000000000000000000000000000000600052602160045260246000fd5b02179055507fa4035636e99f06b7651a604c1019fa4e8779fe68ef27eeb74dff2de348f6199b60025460016000600254815260200190815260200160002060030160009054906101000a900460ff1660028111156200070c577f4e487b7100000000000000000000000000000000000000000000000000000000600052602160045260246000fd5b836040516200071e9392919062001139565b60405180910390a1600260008154809291906200073b9062001359565b9190505550505050565b60008060009054906101000a900473ffffffffffffffffffffffffffffffffffffffff16905090565b60016020528060005260406000206000915090508060000160009054906101000a900473ffffffffffffffffffffffffffffffffffffffff1690806001018054620007b990620012ed565b80601f0160208091040260200160405190810160405280929190818152602001828054620007e790620012ed565b8015620008385780601f106200080c5761010080835404028352916020019162000838565b820191906000526020600020905b8154815290600101906020018083116200081a57829003601f168201915b5050505050908060020154908060030160009054906101000a900460ff16905084565b6200086562000bf5565b73ffffffffffffffffffffffffffffffffffffffff166200088562000745565b73ffffffffffffffffffffffffffffffffffffffff1614620008de576040517f08c379a0000000000000000000000000000000000000000000000000000000008152600401620008d590620010f5565b60405180910390fd5b6001600281111562000919577f4e487b7100000000000000000000000000000000000000000000000000000000600052602160045260246000fd5b6001600083815260200190815260200160002060030160009054906101000a900460ff16600281111562000976577f4e487b7100000000000000000000000000000000000000000000000000000000600052602160045260246000fd5b14620009b9576040517f08c379a0000000000000000000000000000000000000000000000000000000008152600401620009b090620010d3565b60405180910390fd5b60026001600083815260200190815260200160002060030160006101000a81548160ff0219169083600281111562000a1a577f4e487b7100000000000000000000000000000000000000000000000000000000600052602160045260246000fd5b02179055507fa4035636e99f06b7651a604c1019fa4e8779fe68ef27eeb74dff2de348f6199b816001600084815260200190815260200160002060030160009054906101000a900460ff16600281111562000a9e577f4e487b7100000000000000000000000000000000000000000000000000000000600052602160045260246000fd5b6001600085815260200190815260200160002060000160009054906101000a900473ffffffffffffffffffffffffffffffffffffffff1660405162000ae69392919062001139565b60405180910390a150565b62000afb62000bf5565b73ffffffffffffffffffffffffffffffffffffffff1662000b1b62000745565b73ffffffffffffffffffffffffffffffffffffffff161462000b74576040517f08c379a000000000000000000000000000000000000000000000000000000000815260040162000b6b90620010f5565b60405180910390fd5b600073ffffffffffffffffffffffffffffffffffffffff168173ffffffffffffffffffffffffffffffffffffffff16141562000be7576040517f08c379a000000000000000000000000000000000000000000000000000000000815260040162000bde90620010b1565b60405180910390fd5b62000bf28162000bfd565b50565b600033905090565b60008060009054906101000a900473ffffffffffffffffffffffffffffffffffffffff169050816000806101000a81548173ffffffffffffffffffffffffffffffffffffffff021916908373ffffffffffffffffffffffffffffffffffffffff1602179055508173ffffffffffffffffffffffffffffffffffffffff168173ffffffffffffffffffffffffffffffffffffffff167f8be0079c531659141344cd1fd0a4f28419497f9722a3daafe3b4186f6b6457e060405160405180910390a35050565b6106a480620015b083390190565b82805462000cdd90620012ed565b90600052602060002090601f01602090048101928262000d01576000855562000d4d565b82601f1062000d1c57805160ff191683800117855562000d4d565b8280016001018555821562000d4d579182015b8281111562000d4c57825182559160200191906001019062000d2f565b5b50905062000d5c919062000d60565b5090565b5b8082111562000d7b57600081600090555060010162000d61565b5090565b600062000d9662000d90846200119f565b62001176565b90508281526020810184848401111562000daf57600080fd5b62000dbc848285620012a8565b509392505050565b60008135905062000dd5816200157b565b92915050565b600082601f83011262000ded57600080fd5b813562000dff84826020860162000d7f565b91505092915050565b60008135905062000e198162001595565b92915050565b60006020828403121562000e3257600080fd5b600062000e428482850162000dc4565b91505092915050565b6000806040838503121562000e5f57600080fd5b600083013567ffffffffffffffff81111562000e7a57600080fd5b62000e888582860162000ddb565b925050602062000e9b8582860162000e08565b9150509250929050565b60006020828403121562000eb857600080fd5b600062000ec88482850162000e08565b91505092915050565b62000edc81620011f1565b82525050565b62000eed8162001244565b82525050565b62000efe816200126c565b82525050565b62000f0f8162001294565b82525050565b600062000f2282620011d5565b62000f2e8185620011e0565b935062000f40818560208601620012b7565b62000f4b8162001463565b840191505092915050565b600062000f65602683620011e0565b915062000f728262001474565b604082019050919050565b600062000f8c602083620011e0565b915062000f9982620014c3565b602082019050919050565b600062000fb3602083620011e0565b915062000fc082620014ec565b602082019050919050565b600062000fda602983620011e0565b915062000fe78262001515565b604082019050919050565b62000ffd816200123a565b82525050565b60006020820190506200101a600083018462000ed1565b92915050565b600060608201905062001037600083018662000ee2565b62001046602083018562000ff2565b62001055604083018462000ff2565b949350505050565b600060808201905062001074600083018762000ef3565b818103602083015262001088818662000f15565b905062001099604083018562000ff2565b620010a8606083018462000f04565b95945050505050565b60006020820190508181036000830152620010cc8162000f56565b9050919050565b60006020820190508181036000830152620010ee8162000f7d565b9050919050565b60006020820190508181036000830152620011108162000fa4565b9050919050565b60006020820190508181036000830152620011328162000fcb565b9050919050565b600060608201905062001150600083018662000ff2565b6200115f602083018562000ff2565b6200116e604083018462000ed1565b949350505050565b60006200118262001195565b905062001190828262001323565b919050565b6000604051905090565b600067ffffffffffffffff821115620011bd57620011bc62001434565b5b620011c88262001463565b9050602081019050919050565b600081519050919050565b600082825260208201905092915050565b6000620011fe826200121a565b9050919050565b6000819050620012158262001564565b919050565b600073ffffffffffffffffffffffffffffffffffffffff82169050919050565b6000819050919050565b6000620012518262001258565b9050919050565b600062001265826200121a565b9050919050565b6000620012798262001280565b9050919050565b60006200128d826200121a565b9050919050565b6000620012a18262001205565b9050919050565b82818337600083830152505050565b60005b83811015620012d7578082015181840152602081019050620012ba565b83811115620012e7576000848401525b50505050565b600060028204905060018216806200130657607f821691505b602082108114156200131d576200131c62001405565b5b50919050565b6200132e8262001463565b810181811067ffffffffffffffff8211171562001350576200134f62001434565b5b80604052505050565b600062001366826200123a565b91507fffffffffffffffffffffffffffffffffffffffffffffffffffffffffffffffff8214156200139c576200139b620013a7565b5b600182019050919050565b7f4e487b7100000000000000000000000000000000000000000000000000000000600052601160045260246000fd5b7f4e487b7100000000000000000000000000000000000000000000000000000000600052602160045260246000fd5b7f4e487b7100000000000000000000000000000000000000000000000000000000600052602260045260246000fd5b7f4e487b7100000000000000000000000000000000000000000000000000000000600052604160045260246000fd5b6000601f19601f8301169050919050565b7f4f776e61626c653a206e6577206f776e657220697320746865207a65726f206160008201527f6464726573730000000000000000000000000000000000000000000000000000602082015250565b7f4974656d206675727468657220696e2074686520737570706c7920636861696e600082015250565b7f4f776e61626c653a2063616c6c6572206973206e6f7420746865206f776e6572600082015250565b7f596f75206469646e27742070617920656e6f756768206d6f6e657920666f722060008201527f74686973206974656d0000000000000000000000000000000000000000000000602082015250565b60038110620015785762001577620013d6565b5b50565b6200158681620011f1565b81146200159257600080fd5b50565b620015a0816200123a565b8114620015ac57600080fd5b5056fe608060405234801561001057600080fd5b506040516106a43803806106a4833981810160405281019061003291906100b3565b816000819055508060028190555082600360006101000a81548173ffffffffffffffffffffffffffffffffffffffff021916908373ffffffffffffffffffffffffffffffffffffffff16021790555050505061017e565b60008151905061009881610150565b92915050565b6000815190506100ad81610167565b92915050565b6000806000606084860312156100c857600080fd5b60006100d686828701610089565b93505060206100e78682870161009e565b92505060406100f88682870161009e565b9150509250925092565b600061010d82610126565b9050919050565b600061011f82610102565b9050919050565b600073ffffffffffffffffffffffffffffffffffffffff82169050919050565b6000819050919050565b61015981610114565b811461016457600080fd5b50565b61017081610146565b811461017b57600080fd5b50565b6105178061018d6000396000f3fe60806040523661020d5760006001541461004e576040517f08c379a00000000000000000000000000000000000000000000000000000000081526004016100459061031c565b60405180910390fd5b3460005414610092576040517f08c379a0000000000000000000000000000000000000000000000000000000008152600401610089906102fc565b60405180910390fd5b34600160008282546100a4919061037e565b925050819055506000600360009054906101000a900473ffffffffffffffffffffffffffffffffffffffff1673ffffffffffffffffffffffffffffffffffffffff16346002546040516024016100fa919061033c565b6040516020818303038152906040527f800fb83f000000000000000000000000000000000000000000000000000000007bffffffffffffffffffffffffffffffffffffffffffffffffffffffff19166020820180517bffffffffffffffffffffffffffffffffffffffffffffffffffffffff838183161783525050505060405161018491906102c5565b60006040518083038185875af1925050503d80600081146101c1576040519150601f19603f3d011682016040523d82523d6000602084013e6101c6565b606091505b505090508061020a576040517f08c379a0000000000000000000000000000000000000000000000000000000008152600401610201906102dc565b60405180910390fd5b50005b34801561021957600080fd5b50005b600061022782610357565b6102318185610362565b93506102418185602086016103de565b80840191505092915050565b600061025a60218361036d565b915061026582610440565b604082019050919050565b600061027d60128361036d565b91506102888261048f565b602082019050919050565b60006102a0601e8361036d565b91506102ab826104b8565b602082019050919050565b6102bf816103d4565b82525050565b60006102d1828461021c565b915081905092915050565b600060208201905081810360008301526102f58161024d565b9050919050565b6000602082019050818103600083015261031581610270565b9050919050565b6000602082019050818103600083015261033581610293565b9050919050565b600060208201905061035160008301846102b6565b92915050565b600081519050919050565b600081905092915050565b600082825260208201905092915050565b6000610389826103d4565b9150610394836103d4565b9250827fffffffffffffffffffffffffffffffffffffffffffffffffffffffffffffffff038211156103c9576103c8610411565b5b828201905092915050565b6000819050919050565b60005b838110156103fc5780820151818401526020810190506103e1565b8381111561040b576000848401525b50505050565b7f4e487b7100000000000000000000000000000000000000000000000000000000600052601160045260246000fd5b7f546865207472616e73616374696f6e207761736e27742073756363657373667560008201527f6c00000000000000000000000000000000000000000000000000000000000000602082015250565b7f4f6e6c792066756c6c207061796d656e74730000000000000000000000000000600082015250565b7f546865206974656d20686173206265656e207061696420616c7265616479000060008201525056fea2646970667358221220a86145168d6cb3f81f6d5b4cf48274469f08484e44f4d0de9c853444b09a020764736f6c63430008010033a2646970667358221220d569d9369a2c6b2937ac548dccfb548c8addced277760dcebb99474aeb935cf264736f6c63430008010033",
  "immutableReferences": {},
  "source": "// SPDX-License-Identifier: MIT\n\npragma solidity ^0.8.1;\n\nimport \"@openzeppelin/contracts/access/Ownable.sol\";\nimport \"./Item.sol\";\n\ncontract ItemManager is Ownable {\n    \n    enum SupplyChainState{Created, Paid, Delivered}\n    \n    struct S_Item {\n        Item _item;\n        string _identifier;\n        uint _itemPrice;\n        SupplyChainState _state;\n    }\n    \n    mapping(uint => S_Item) public items;\n    uint itemIndex;\n    \n    event SupplyChainStep(uint _itemIndex, uint _itemStep, address _itemAddress);\n    \n    function createItem(string memory _identifier, uint _itemPrice) public onlyOwner {\n        Item item = new Item(this, _itemPrice, itemIndex);\n        items[itemIndex]._item = item;\n        items[itemIndex]._identifier = _identifier;\n        items[itemIndex]._itemPrice = _itemPrice;\n        items[itemIndex]._state = SupplyChainState.Created;\n        \n        emit SupplyChainStep(itemIndex, uint(items[itemIndex]._state), address(item));\n        itemIndex++;\n    }\n    \n    function triggerPayment(uint _itemIndex) public payable{\n        require(items[_itemIndex]._itemPrice == msg.value, \"You didn't pay enough money for this item\");\n        require(items[_itemIndex]._state == SupplyChainState.Created, \"Item further in the supply chain\");\n        items[_itemIndex]._state = SupplyChainState.Paid;\n        \n        emit SupplyChainStep(_itemIndex, uint(items[_itemIndex]._state), address(items[_itemIndex]._item));\n    }\n    \n    function triggerDelivery(uint _itemIndex) public onlyOwner {\n        require(items[_itemIndex]._state == SupplyChainState.Paid, \"Item further in the supply chain\");\n        items[_itemIndex]._state = SupplyChainState.Delivered;\n        \n        emit SupplyChainStep(_itemIndex, uint(items[_itemIndex]._state), address(items[_itemIndex]._item));\n    }\n}",
  "sourcePath": "/Users/sjoerdsommen/Desktop/Solidity Course/SupplyChain/contracts/ItemManager.sol",
  "compiler": {
    "name": "solc",
    "version": "0.8.1+commit.df193b15.Emscripten.clang"
  },
  "schemaVersion": "3.4.1",
  "updatedAt": "2021-08-31T08:20:48.611Z",
  "devdoc": {
    "kind": "dev",
    "methods": {
      "owner()": {
        "details": "Returns the address of the current owner."
      },
      "renounceOwnership()": {
        "details": "Leaves the contract without owner. It will not be possible to call `onlyOwner` functions anymore. Can only be called by the current owner. NOTE: Renouncing ownership will leave the contract without an owner, thereby removing any functionality that is only available to the owner."
      },
      "transferOwnership(address)": {
        "details": "Transfers ownership of the contract to a new account (`newOwner`). Can only be called by the current owner."
      }
    },
    "version": 1
  },
  "userdoc": {
    "kind": "user",
    "methods": {},
    "version": 1
  }
}